:020000040800F2
:10000000F0040020650100089B0100089D01000824
:1000100000000000000000000000000000000000E0
:100020000000000000000000000000009F01000828
:100030000000000000000000A1010008A30100086A
:10004000000000000000000000000000A501000802
:10005000A5010008A5010008A5010008A5010008E8
:100060000000000000000000000000000000000090
:10007000A5010008B5020008A50100080000000065
:10008000000000005902000800000000000000000D
:1000900000000000A501000800000000A501000804
:1000A00000000000A501000800000000A5010008F4
:1000B0000000000000000000000000000000000040
:1000C00000F002F800F03EF812A030C808382418FA
:1000D0002D18AC4201D100F035F80FCCA246AB464A
:1000E0000CA730CF2D1B083F3F197C427F1E544484
:1000F0002D090426F441641EAC4201D300F022F81D
:100100000126334200D0FB1A3343984754465D46DC
:10011000DFE70000FC0D00000C0E0000704700003F
:100120000023002400250026103A01D378C1FBD813
:10013000520700D330C100D50B6070471FB51FBDFB
:1001400010B510BD00F055F81146FFF7F7FF00F0AD
:1001500083F900F06DF803B4FFF7F2FF03BC00F081
:1001600073F8000013480168134A114301601348F3
:100170000168134A1143016012480168124A114094
:10018000016012480168124A114002D0114800680B
:1001900000471148804711480047FEE7FEE7FEE7A9
:1001A000FEE7FEE7FEE700000D480E490C4A0E4B45
:1001B0007047000034100240010000000C000050A5
:1001C0000800000000000050F3FFFFFF1000005087
:1001D000020000000400FF1F69020008C1000008BF
:1001E000F0000020F0040020F0000020704770476D
:1001F0007047754600F024F8AE4605006946534640
:10020000C008C000854618B020B5FFF7CDFF60BC20
:10021000B64600260027C0C5C0C5C0C5C0C5C0C5FC
:10022000C0C5C0C5C0C5403D490849008D4670479E
:1002300010B50446C046C0462046FFF78CFF10BDEF
:10024000004870470000002001491820ABBEFEE7BF
:1002500026000200704700000248016802220A439B
:1002600002607047047C00400E480168012211437F
:1002700001600D4841680D4B0B400D490968194359
:100280004160110602680A43026001688901FCD5D9
:10029000816802220A438260816838220A40102A5B
:1002A000FAD1704700200240001002400000FFFF1A
:1002B000100FFF1F10B5144801462C3900230B60A6
:1002C000124A1178124C2478A14200D110BD117845
:1002D0004900104C615E1478312C01D013785B1CFE
:1002E0001370012905DB00220260001F4900016034
:1002F00010BD031F00221A60002901D4026010BD46
:1003000049004942016010BD3C2C0140C80000205A
:10031000C900002064000020F0B584B0494B1A7871
:100320002D2A02D8501C187001E0002802D00020AD
:1003300004B0F0BD0091444A0023D3605068082106
:100340000143102081435160802111620520040780
:100350000391A16225683D4E3540012081036D184F
:100360002560E568354001916D18E5601D460290F5
:1003700011680143116072B6216831402160E16863
:1003800037463140E160116804260E43166062B6BC
:100390001146083909684907FAD50398A06221680F
:1003A0003E463940019801432160916B691A0298D9
:1003B00085024D19591C042B0B46D9D3E1683140F5
:1003C000E160ABB222490C88A34203D82A46002C34
:1003D00003D003E0621C002C00D12A460A8094B2AC
:1003E0001C4A1178002901D0192500E032252C196A
:1003F0009C420ED24B1CD8B2984200D101461170DB
:100400000329009B14D01F2991D10220002B12D167
:1004100015E0091F009B002B02D0CBB21C2B0ED382
:1004200000201070C9B21C2909D2012004B0F0BD0F
:100430000320002B03D0491E117004B0F0BD04B09E
:10044000F0BDC046CE00002008240140FF3FFFFF62
:10045000CC000020CA00002000B599B0012421077B
:10046000C74B181F02680A4313900260C5490A6807
:1004700004273A430A6019460C390A6823231343B8
:100480000B600520050729680C221592914329600D
:10049000E968082216921143B943E960BA4ABB4998
:1004A0005160002112919160109010600E9426040A
:1004B00011683142FCD0296989070ED57D210901D7
:1004C000B14CB24860601298A06010982060226819
:1004D0003242FCD0491E0A04F3D1129CE143AC48DD
:1004E00001602960C460EC604023AB612968A948C1
:1004F00001400E9A1003029009182960AF62296822
:10050000102007900143202006908143296029682C
:10051000159881432960E96839431698C043014022
:10052000E960AB610C93AB629B490C70296839435D
:10053000019001402960AB210722149604E0490094
:10054000AF62521E002B16D04BB2002B01DA1823DB
:1005500000E0282302201790E850AF611306EED187
:100560002E68159886432E60EE683E4316988643A3
:10057000EE60149EE3E70C98A8619020824A0490F4
:100580005060129890601098106011683142FCD051
:100590007B480168412252010592203A0A430260D9
:1005A0000E9EB10209911A397C4CE160B103626A76
:1005B0000A43626212986060214620390A68324319
:1005C0000A600D21C9022246083A13680B431360E2
:1005D00021680798014321600320089081042A685C
:1005E0008A43F10451182960696A069801436962D7
:1005F000211F0A68682313430B602168099A11437D
:10060000216067490A68169B1A43BA430A600A6A5E
:1006100002430A622168059801432160143C039457
:100620003146266072035F4802603205544C2368ED
:10063000134323605C4A12981060B2055B4B1E683E
:1006400016431E60524B1A683A43169882431A604A
:1006500022680A4322600898C2432B6813402B602B
:10066000EA680A4317988243EA602A68C0239A43DB
:100670002A60EA680C98024380239A432046EA6085
:10068000226A0A432262026A9207FCD50E9CA204E7
:10069000436913434361E2071398036813430360FC
:1006A000434E304608380268179B1A430260306890
:1006B000204330600998B06060043A490860FF2028
:1006C0000A90F4300F903B4C149E3B4A1088411E18
:1006D0001180002800D0ABE2374838490180384803
:1006E000008801060ED0002800D1A1E1354800782D
:1006F000401CC1B2032900D90020C1B2022937D35E
:10070000282136E00222224882622F490888401CB4
:10071000088080B2202800D28DE11D4882620C98AA
:10072000A861A86228683843169988432860B920D0
:100730000721164B1446119204E04000AF62491E97
:10074000002A43D042B2002A01DA182200E028220F
:10075000AC50AF610A06F0D12B68159CA3432B6007
:10076000EB683B43169CA343119CEB60074BE4E70B
:100770001821074A179B53501249087058E1C04688
:100780004010024010ED00E010E000E080BB0000EF
:1007900000140050FFCFFFFFD4000020202C0140A8
:1007A0000004005000E100E010240140082701404F
:1007B000107C0040C8000020D0000020F20500009E
:1007C000EC00002060000020620000200C98A8616E
:1007D000F44A0498506000201390906010981060C4
:1007E00010683042FCD00C98A861286830218843FA
:1007F0002860E8680799084306998843E8602868F4
:10080000159988432860E868384316998843E8605A
:100810000A20536013999160109911601168314258
:10082000FCD0401E0104F4D1039813990160DE4806
:10083000C1618161103801600168C907FCD0DA4AE2
:100840001068059988431060D849086820430860FB
:1008500027204002D64A116801431160D54C20463A
:1008600038381399016030BFD34A116801263143EB
:10087000116021463C390A68D04B1A40D04B1B68A6
:1008800013430B600B963206214640390B68134325
:100890000B600A689201FCD50168119A114301604E
:1008A000149B016838220A40102AFAD10F200D90BB
:1008B0000002BC4948601398886010980860086876
:1008C0001842FCD0BFA1139A0620085643068B8815
:1008D0001E4600D5139E0C682469234073400028EF
:1008E00013D498B2431E9841BA4EB35C5C002018F2
:1008F000B0540D9C2040072819D00E28119C1CD103
:1009000002260E9800281CD11FE0B24EB05C1B04DA
:1009100022D0441CE3B2A34200D11846B0540328AD
:10092000119C01D01F2820D1431E26460BE0012632
:100930000E98119C002804D107E0002006460028EC
:1009400003D07F200340A3488354002E1CD10831DC
:10095000521C012AB8D00AE0001FC0B200231C2894
:100960001E46119CEFD20226EFE70026EDE7002697
:100970000E99C90700D167E7F0B20B9E3146FFF729
:10098000CBFC00210028F4D0874A10680599084361
:10099000106003980B9901600C99A96128688E4A30
:1009A0001040029A10432860AF622868079A1043EB
:1009B000069A904328602868159A90432860E86852
:1009C0003843019A1040E860A961A9620020834978
:1009D00008702968394311402960AB210722149E11
:1009E00005E04900AF62521E002B7D4C15D04BB282
:1009F000002B01DA182300E028230224EC50AF6119
:100A00001306EED12C68159EB4432C60EC683C4371
:100A1000169EB443149EEC60E3E70C99A96161490A
:100A2000049A4A6088601098086008683042FCD0D8
:100A300000206C490880296901200140654B1A7823
:100A400052008918414019700F220A4013460E3B8C
:100A500059425941072A00D04800022809D00128EC
:100A600021D1F748008802281798F749F74A07D19B
:100A700019E0F3480088012815D000210120F24A2E
:100A8000F34B1960EE490880F24802602B20F249CE
:100A900008800A98F14908800020F1490880E5495A
:100AA00008700C98A861E74A5178286900070CD4AF
:100AB0004A1CD0B2904200D10146E248417003295D
:100AC0000BD108461F290BD00BE000205070091FE6
:100AD000C9B21C2905D2012003E000201F2900D142
:100AE000022002281ED0012836D1D5480288DD48D0
:100AF0000078011D531A5A425A4108280E9B00D80B
:100B00001346002B28D1CE4A118015994843D64967
:100B10004018416A826ACE4B19605118CD4A116063
:100B2000808D0DE0C6480088032815D0C848C74905
:100B300001600320C2490880C048C64908602B20D4
:100B40000A99C64A1180C44908800020C449088017
:100B5000B84908700C98A861002013900146FFF76F
:100B6000DBFB022840D0012858D1B5480288BD4897
:100B70000078011D531A5A425A4108280E9B00D88A
:100B80001346002B4AD1AE4A118015994843B64905
:100B90004018416A826AAE4B19605118AD4A116023
:100BA000808D2FE010E000E0202C0140107C004000
:100BB0000070004040100240002002400000FFFF93
:100BC000100FFF1F00000050010000000000005047
:100BD00008008000D5000020FFCFFFFFD4000020D8
:100BE000C80000206200002095480088032815D026
:100BF0009748964901600320914908808F4895499C
:100C000008602B200A99954A1180934908809448DE
:100C100013990180874801700C98A8619148007869
:100C2000401CC1B20829139900D801468D480170B3
:100C300012988E49088082480088002800D1D6E0AA
:100C400085480088854A11880818108081B20F9A5B
:100C5000F33A92B2914200D2C9E0C0B27F49088013
:100C600074480078002800D092E0AF620C98A86227
:100C7000286838431699884328600720089904E0BB
:100C80004900AF62401E002A14D04AB2002A01DA9D
:100C9000182200E02822179BAB50AF610206EFD16B
:100CA0002B68159CA3432B60EB683B43169CA34326
:100CB000EB60E5E728683843169988432860644864
:100CC0000068010C072204E04900AF62521E002BAD
:100CD00015D04BB2002B01DA182300E02823179C13
:100CE000EC50AF611306EFD12C68159EB4432C6015
:100CF000EC683C43169EB443149EEC60E4E729681C
:100D00003943169A91432960010A072205E04900F8
:100D1000AF62521E002B584C15D04BB2002B01DA9B
:100D2000182300E02823179CEC50AF611306EED186
:100D30002C68159EB4432C60EC683C43169EB4436B
:100D4000149EEC60E3E729683943169A91432960C1
:100D5000072104E04000AF62491E002A15D042B2CC
:100D6000002A01DA182200E02822179BAB50AF615D
:100D70000A06EFD12B68159CA3432B60EB683B431D
:100D8000169CA3433C4CEB60E4E70E98294908709D
:100D9000072006E0AF61AF61AF62411E0006084662
:100DA0000CD01899490018AA117029698907F1D542
:100DB0000121189A0A4318A90A70EBE72449086828
:100DC000401C08600999193918AA12784A43284921
:100DD00051184A0E8918C909214A11801D4909680C
:100DE000884204D10C98A86112981549088012987D
:100DF0001B49095E1D4801800F98814202DC0E48A4
:100E0000814201DA194908801A480078411CC8B2A9
:100E10003228129800D00846144909882278C3B2B3
:100E20009342FBD0134A12785200144B9952114945
:100E300008704AE4D40000200EFEFFFF6C3402006C
:100E4000EC000020D5000020885D00001065010046
:100E5000D8000020DC000020E4000020E00000209A
:100E6000E800002061000020800E0008D200002071
:100E7000800CFEFFC9000020C80000206400002094
:100E800000000000885D00002B000000885D00006D
:100E9000880701002B000000106501005CCF0000F6
:100EA0002B0000006C340200A03E00002B0000006C
:100EB0000C73020094ED00002B000000A060030002
:100EC000004100002B000000A0A10300844E0000A0
:100ED0002B00000024F003008C7400002B000000A5
:100EE000B0640400684300002B00000018A8040050
:100EF000684500002B00000080ED04000045000064
:100F00002B00000080320500684400002B00000028
:100F1000200F000800000020F0040000200100085D
:04000005080000C12E
:00000001FF
